{
  "_format": "hh-sol-artifact-1",
  "contractName": "RealEstate",
  "sourceName": "contracts/RealEstate.sol",
  "abi": [
    {
      "inputs": [],
      "stateMutability": "nonpayable",
      "type": "constructor"
    },
    {
      "anonymous": false,
      "inputs": [
        {
          "indexed": true,
          "internalType": "address",
          "name": "owner",
          "type": "address"
        },
        {
          "indexed": true,
          "internalType": "address",
          "name": "approved",
          "type": "address"
        },
        {
          "indexed": true,
          "internalType": "uint256",
          "name": "tokenId",
          "type": "uint256"
        }
      ],
      "name": "Approval",
      "type": "event"
    },
    {
      "anonymous": false,
      "inputs": [
        {
          "indexed": true,
          "internalType": "address",
          "name": "owner",
          "type": "address"
        },
        {
          "indexed": true,
          "internalType": "address",
          "name": "operator",
          "type": "address"
        },
        {
          "indexed": false,
          "internalType": "bool",
          "name": "approved",
          "type": "bool"
        }
      ],
      "name": "ApprovalForAll",
      "type": "event"
    },
    {
      "anonymous": false,
      "inputs": [
        {
          "indexed": false,
          "internalType": "uint256",
          "name": "_fromTokenId",
          "type": "uint256"
        },
        {
          "indexed": false,
          "internalType": "uint256",
          "name": "_toTokenId",
          "type": "uint256"
        }
      ],
      "name": "BatchMetadataUpdate",
      "type": "event"
    },
    {
      "anonymous": false,
      "inputs": [
        {
          "indexed": false,
          "internalType": "uint256",
          "name": "_tokenId",
          "type": "uint256"
        }
      ],
      "name": "MetadataUpdate",
      "type": "event"
    },
    {
      "anonymous": false,
      "inputs": [
        {
          "indexed": true,
          "internalType": "address",
          "name": "previousOwner",
          "type": "address"
        },
        {
          "indexed": true,
          "internalType": "address",
          "name": "newOwner",
          "type": "address"
        }
      ],
      "name": "OwnershipTransferred",
      "type": "event"
    },
    {
      "anonymous": false,
      "inputs": [
        {
          "indexed": true,
          "internalType": "address",
          "name": "from",
          "type": "address"
        },
        {
          "indexed": true,
          "internalType": "address",
          "name": "to",
          "type": "address"
        },
        {
          "indexed": true,
          "internalType": "uint256",
          "name": "tokenId",
          "type": "uint256"
        }
      ],
      "name": "Transfer",
      "type": "event"
    },
    {
      "inputs": [
        {
          "internalType": "address",
          "name": "newOwner",
          "type": "address"
        }
      ],
      "name": "addPlatformOwner",
      "outputs": [],
      "stateMutability": "nonpayable",
      "type": "function"
    },
    {
      "inputs": [
        {
          "internalType": "uint256",
          "name": "price",
          "type": "uint256"
        },
        {
          "internalType": "string",
          "name": "location",
          "type": "string"
        },
        {
          "internalType": "string",
          "name": "metadataURI",
          "type": "string"
        }
      ],
      "name": "addProperty",
      "outputs": [],
      "stateMutability": "nonpayable",
      "type": "function"
    },
    {
      "inputs": [
        {
          "internalType": "address",
          "name": "to",
          "type": "address"
        },
        {
          "internalType": "uint256",
          "name": "tokenId",
          "type": "uint256"
        }
      ],
      "name": "approve",
      "outputs": [],
      "stateMutability": "nonpayable",
      "type": "function"
    },
    {
      "inputs": [
        {
          "internalType": "address",
          "name": "owner",
          "type": "address"
        }
      ],
      "name": "balanceOf",
      "outputs": [
        {
          "internalType": "uint256",
          "name": "",
          "type": "uint256"
        }
      ],
      "stateMutability": "view",
      "type": "function"
    },
    {
      "inputs": [
        {
          "internalType": "uint256",
          "name": "id",
          "type": "uint256"
        }
      ],
      "name": "buyProperty",
      "outputs": [],
      "stateMutability": "payable",
      "type": "function"
    },
    {
      "inputs": [
        {
          "internalType": "uint256",
          "name": "tokenId",
          "type": "uint256"
        }
      ],
      "name": "getApproved",
      "outputs": [
        {
          "internalType": "address",
          "name": "",
          "type": "address"
        }
      ],
      "stateMutability": "view",
      "type": "function"
    },
    {
      "inputs": [],
      "name": "getProperties",
      "outputs": [
        {
          "components": [
            {
              "internalType": "uint256",
              "name": "id",
              "type": "uint256"
            },
            {
              "internalType": "uint256",
              "name": "price",
              "type": "uint256"
            },
            {
              "internalType": "string",
              "name": "location",
              "type": "string"
            },
            {
              "internalType": "bool",
              "name": "isPurchased",
              "type": "bool"
            },
            {
              "internalType": "string",
              "name": "metadataURI",
              "type": "string"
            }
          ],
          "internalType": "struct RealEstate.Property[]",
          "name": "",
          "type": "tuple[]"
        }
      ],
      "stateMutability": "view",
      "type": "function"
    },
    {
      "inputs": [
        {
          "internalType": "uint256",
          "name": "id",
          "type": "uint256"
        }
      ],
      "name": "getProperty",
      "outputs": [
        {
          "components": [
            {
              "internalType": "uint256",
              "name": "id",
              "type": "uint256"
            },
            {
              "internalType": "uint256",
              "name": "price",
              "type": "uint256"
            },
            {
              "internalType": "string",
              "name": "location",
              "type": "string"
            },
            {
              "internalType": "bool",
              "name": "isPurchased",
              "type": "bool"
            },
            {
              "internalType": "string",
              "name": "metadataURI",
              "type": "string"
            }
          ],
          "internalType": "struct RealEstate.Property",
          "name": "",
          "type": "tuple"
        }
      ],
      "stateMutability": "view",
      "type": "function"
    },
    {
      "inputs": [
        {
          "internalType": "address",
          "name": "owner",
          "type": "address"
        },
        {
          "internalType": "address",
          "name": "operator",
          "type": "address"
        }
      ],
      "name": "isApprovedForAll",
      "outputs": [
        {
          "internalType": "bool",
          "name": "",
          "type": "bool"
        }
      ],
      "stateMutability": "view",
      "type": "function"
    },
    {
      "inputs": [
        {
          "internalType": "address",
          "name": "",
          "type": "address"
        }
      ],
      "name": "isPlatformOwner",
      "outputs": [
        {
          "internalType": "bool",
          "name": "",
          "type": "bool"
        }
      ],
      "stateMutability": "view",
      "type": "function"
    },
    {
      "inputs": [],
      "name": "name",
      "outputs": [
        {
          "internalType": "string",
          "name": "",
          "type": "string"
        }
      ],
      "stateMutability": "view",
      "type": "function"
    },
    {
      "inputs": [],
      "name": "owner",
      "outputs": [
        {
          "internalType": "address",
          "name": "",
          "type": "address"
        }
      ],
      "stateMutability": "view",
      "type": "function"
    },
    {
      "inputs": [
        {
          "internalType": "uint256",
          "name": "tokenId",
          "type": "uint256"
        }
      ],
      "name": "ownerOf",
      "outputs": [
        {
          "internalType": "address",
          "name": "",
          "type": "address"
        }
      ],
      "stateMutability": "view",
      "type": "function"
    },
    {
      "inputs": [
        {
          "internalType": "uint256",
          "name": "",
          "type": "uint256"
        }
      ],
      "name": "platformOwners",
      "outputs": [
        {
          "internalType": "address",
          "name": "",
          "type": "address"
        }
      ],
      "stateMutability": "view",
      "type": "function"
    },
    {
      "inputs": [
        {
          "internalType": "uint256",
          "name": "",
          "type": "uint256"
        }
      ],
      "name": "properties",
      "outputs": [
        {
          "internalType": "uint256",
          "name": "id",
          "type": "uint256"
        },
        {
          "internalType": "uint256",
          "name": "price",
          "type": "uint256"
        },
        {
          "internalType": "string",
          "name": "location",
          "type": "string"
        },
        {
          "internalType": "bool",
          "name": "isPurchased",
          "type": "bool"
        },
        {
          "internalType": "string",
          "name": "metadataURI",
          "type": "string"
        }
      ],
      "stateMutability": "view",
      "type": "function"
    },
    {
      "inputs": [
        {
          "internalType": "uint256",
          "name": "id",
          "type": "uint256"
        }
      ],
      "name": "propertyMetadata",
      "outputs": [
        {
          "internalType": "string",
          "name": "",
          "type": "string"
        }
      ],
      "stateMutability": "view",
      "type": "function"
    },
    {
      "inputs": [],
      "name": "renounceOwnership",
      "outputs": [],
      "stateMutability": "nonpayable",
      "type": "function"
    },
    {
      "inputs": [
        {
          "internalType": "address",
          "name": "from",
          "type": "address"
        },
        {
          "internalType": "address",
          "name": "to",
          "type": "address"
        },
        {
          "internalType": "uint256",
          "name": "tokenId",
          "type": "uint256"
        }
      ],
      "name": "safeTransferFrom",
      "outputs": [],
      "stateMutability": "nonpayable",
      "type": "function"
    },
    {
      "inputs": [
        {
          "internalType": "address",
          "name": "from",
          "type": "address"
        },
        {
          "internalType": "address",
          "name": "to",
          "type": "address"
        },
        {
          "internalType": "uint256",
          "name": "tokenId",
          "type": "uint256"
        },
        {
          "internalType": "bytes",
          "name": "data",
          "type": "bytes"
        }
      ],
      "name": "safeTransferFrom",
      "outputs": [],
      "stateMutability": "nonpayable",
      "type": "function"
    },
    {
      "inputs": [
        {
          "internalType": "address",
          "name": "operator",
          "type": "address"
        },
        {
          "internalType": "bool",
          "name": "approved",
          "type": "bool"
        }
      ],
      "name": "setApprovalForAll",
      "outputs": [],
      "stateMutability": "nonpayable",
      "type": "function"
    },
    {
      "inputs": [
        {
          "internalType": "bytes4",
          "name": "interfaceId",
          "type": "bytes4"
        }
      ],
      "name": "supportsInterface",
      "outputs": [
        {
          "internalType": "bool",
          "name": "",
          "type": "bool"
        }
      ],
      "stateMutability": "view",
      "type": "function"
    },
    {
      "inputs": [],
      "name": "symbol",
      "outputs": [
        {
          "internalType": "string",
          "name": "",
          "type": "string"
        }
      ],
      "stateMutability": "view",
      "type": "function"
    },
    {
      "inputs": [
        {
          "internalType": "uint256",
          "name": "tokenId",
          "type": "uint256"
        }
      ],
      "name": "tokenURI",
      "outputs": [
        {
          "internalType": "string",
          "name": "",
          "type": "string"
        }
      ],
      "stateMutability": "view",
      "type": "function"
    },
    {
      "inputs": [],
      "name": "totalProperties",
      "outputs": [
        {
          "internalType": "uint256",
          "name": "",
          "type": "uint256"
        }
      ],
      "stateMutability": "view",
      "type": "function"
    },
    {
      "inputs": [
        {
          "internalType": "address",
          "name": "from",
          "type": "address"
        },
        {
          "internalType": "address",
          "name": "to",
          "type": "address"
        },
        {
          "internalType": "uint256",
          "name": "tokenId",
          "type": "uint256"
        }
      ],
      "name": "transferFrom",
      "outputs": [],
      "stateMutability": "nonpayable",
      "type": "function"
    },
    {
      "inputs": [
        {
          "internalType": "address",
          "name": "newOwner",
          "type": "address"
        }
      ],
      "name": "transferOwnership",
      "outputs": [],
      "stateMutability": "nonpayable",
      "type": "function"
    }
  ],
  "bytecode": "0x608060405234801561001057600080fd5b506040518060400160405280600f81526020017f5265616c457374617465546f6b656e00000000000000000000000000000000008152506040518060400160405280600381526020017f5245540000000000000000000000000000000000000000000000000000000000815250816000908161008c91906104a1565b50806001908161009c91906104a1565b5050506100bb6100b061018360201b60201c565b61018b60201b60201c565b60016008819055506001600a60003373ffffffffffffffffffffffffffffffffffffffff1673ffffffffffffffffffffffffffffffffffffffff16815260200190815260200160002060006101000a81548160ff021916908315150217905550600b339080600181540180825580915050600190039060005260206000200160009091909190916101000a81548173ffffffffffffffffffffffffffffffffffffffff021916908373ffffffffffffffffffffffffffffffffffffffff160217905550610573565b600033905090565b6000600760009054906101000a900473ffffffffffffffffffffffffffffffffffffffff16905081600760006101000a81548173ffffffffffffffffffffffffffffffffffffffff021916908373ffffffffffffffffffffffffffffffffffffffff1602179055508173ffffffffffffffffffffffffffffffffffffffff168173ffffffffffffffffffffffffffffffffffffffff167f8be0079c531659141344cd1fd0a4f28419497f9722a3daafe3b4186f6b6457e060405160405180910390a35050565b600081519050919050565b7f4e487b7100000000000000000000000000000000000000000000000000000000600052604160045260246000fd5b7f4e487b7100000000000000000000000000000000000000000000000000000000600052602260045260246000fd5b600060028204905060018216806102d257607f821691505b6020821081036102e5576102e461028b565b5b50919050565b60008190508160005260206000209050919050565b60006020601f8301049050919050565b600082821b905092915050565b60006008830261034d7fffffffffffffffffffffffffffffffffffffffffffffffffffffffffffffffff82610310565b6103578683610310565b95508019841693508086168417925050509392505050565b6000819050919050565b6000819050919050565b600061039e6103996103948461036f565b610379565b61036f565b9050919050565b6000819050919050565b6103b883610383565b6103cc6103c4826103a5565b84845461031d565b825550505050565b600090565b6103e16103d4565b6103ec8184846103af565b505050565b5b81811015610410576104056000826103d9565b6001810190506103f2565b5050565b601f82111561045557610426816102eb565b61042f84610300565b8101602085101561043e578190505b61045261044a85610300565b8301826103f1565b50505b505050565b600082821c905092915050565b60006104786000198460080261045a565b1980831691505092915050565b60006104918383610467565b9150826002028217905092915050565b6104aa82610251565b67ffffffffffffffff8111156104c3576104c261025c565b5b6104cd82546102ba565b6104d8828285610414565b600060209050601f83116001811461050b57600084156104f9578287015190505b6105038582610485565b86555061056b565b601f198416610519866102eb565b60005b828110156105415784890151825560018201915060208501945060208101905061051c565b8683101561055e578489015161055a601f891682610467565b8355505b6001600288020188555050505b505050505050565b6148f0806105826000396000f3fe6080604052600436106101815760003560e01c8063715018a6116100d1578063c87b56dd1161008a578063ec0cfd0b11610064578063ec0cfd0b146105a9578063f2fde38b146105d4578063f7b10808146105fd578063fa4494831461063e57610181565b8063c87b56dd146104f2578063d20275c61461052f578063e985e9c51461056c57610181565b8063715018a61461040a5780638da5cb5b1461042157806395d89b411461044c57806397160be814610477578063a22cb465146104a0578063b88d4fde146104c957610181565b806332665ffb1161013e5780634cf1c83f116101185780634cf1c83f1461034b5780636352211e146103745780636fa830a6146103b157806370a08231146103cd57610181565b806332665ffb146102a85780634185e0ba146102e557806342842e0e1461032257610181565b806301ffc9a71461018657806306fdde03146101c3578063081812fc146101ee578063095ea7b31461022b5780630b3bce201461025457806323b872dd1461027f575b600080fd5b34801561019257600080fd5b506101ad60048036038101906101a89190612dc3565b61067b565b6040516101ba9190612e0b565b60405180910390f35b3480156101cf57600080fd5b506101d86106dc565b6040516101e59190612eb6565b60405180910390f35b3480156101fa57600080fd5b5061021560048036038101906102109190612f0e565b61076e565b6040516102229190612f7c565b60405180910390f35b34801561023757600080fd5b50610252600480360381019061024d9190612fc3565b6107b4565b005b34801561026057600080fd5b506102696108cb565b6040516102769190613012565b60405180910390f35b34801561028b57600080fd5b506102a660048036038101906102a1919061302d565b6108d8565b005b3480156102b457600080fd5b506102cf60048036038101906102ca9190612f0e565b610938565b6040516102dc9190613165565b60405180910390f35b3480156102f157600080fd5b5061030c60048036038101906103079190612f0e565b610b0e565b6040516103199190612f7c565b60405180910390f35b34801561032e57600080fd5b506103496004803603810190610344919061302d565b610b4d565b005b34801561035757600080fd5b50610372600480360381019061036d91906131ec565b610b6d565b005b34801561038057600080fd5b5061039b60048036038101906103969190612f0e565b610e71565b6040516103a89190612f7c565b60405180910390f35b6103cb60048036038101906103c69190612f0e565b610ef7565b005b3480156103d957600080fd5b506103f460048036038101906103ef9190613281565b6111d0565b6040516104019190613012565b60405180910390f35b34801561041657600080fd5b5061041f611287565b005b34801561042d57600080fd5b5061043661129b565b6040516104439190612f7c565b60405180910390f35b34801561045857600080fd5b506104616112c5565b60405161046e9190612eb6565b60405180910390f35b34801561048357600080fd5b5061049e60048036038101906104999190613281565b611357565b005b3480156104ac57600080fd5b506104c760048036038101906104c291906132da565b61159d565b005b3480156104d557600080fd5b506104f060048036038101906104eb919061344a565b6115b3565b005b3480156104fe57600080fd5b5061051960048036038101906105149190612f0e565b611615565b6040516105269190612eb6565b60405180910390f35b34801561053b57600080fd5b5061055660048036038101906105519190612f0e565b611727565b6040516105639190612eb6565b60405180910390f35b34801561057857600080fd5b50610593600480360381019061058e91906134cd565b611781565b6040516105a09190612e0b565b60405180910390f35b3480156105b557600080fd5b506105be611815565b6040516105cb919061364c565b60405180910390f35b3480156105e057600080fd5b506105fb60048036038101906105f69190613281565b6119c7565b005b34801561060957600080fd5b50610624600480360381019061061f9190612f0e565b611a4a565b60405161063595949392919061366e565b60405180910390f35b34801561064a57600080fd5b5061066560048036038101906106609190613281565b611bad565b6040516106729190612e0b565b60405180910390f35b6000634906490660e01b7bffffffffffffffffffffffffffffffffffffffffffffffffffffffff1916827bffffffffffffffffffffffffffffffffffffffffffffffffffffffff191614806106d557506106d482611bcd565b5b9050919050565b6060600080546106eb906136fe565b80601f0160208091040260200160405190810160405280929190818152602001828054610717906136fe565b80156107645780601f1061073957610100808354040283529160200191610764565b820191906000526020600020905b81548152906001019060200180831161074757829003601f168201915b5050505050905090565b600061077982611caf565b6004600083815260200190815260200160002060009054906101000a900473ffffffffffffffffffffffffffffffffffffffff169050919050565b60006107bf82610e71565b90508073ffffffffffffffffffffffffffffffffffffffff168373ffffffffffffffffffffffffffffffffffffffff160361082f576040517f08c379a0000000000000000000000000000000000000000000000000000000008152600401610826906137a1565b60405180910390fd5b8073ffffffffffffffffffffffffffffffffffffffff1661084e611cfa565b73ffffffffffffffffffffffffffffffffffffffff16148061087d575061087c81610877611cfa565b611781565b5b6108bc576040517f08c379a00000000000000000000000000000000000000000000000000000000081526004016108b390613833565b60405180910390fd5b6108c68383611d02565b505050565b6000600c80549050905090565b6108e96108e3611cfa565b82611dbb565b610928576040517f08c379a000000000000000000000000000000000000000000000000000000000815260040161091f906138c5565b60405180910390fd5b610933838383611e50565b505050565b610940612d26565b600c805490508210610987576040517f08c379a000000000000000000000000000000000000000000000000000000000815260040161097e90613931565b60405180910390fd5b600c828154811061099b5761099a613951565b5b90600052602060002090600502016040518060a001604052908160008201548152602001600182015481526020016002820180546109d8906136fe565b80601f0160208091040260200160405190810160405280929190818152602001828054610a04906136fe565b8015610a515780601f10610a2657610100808354040283529160200191610a51565b820191906000526020600020905b815481529060010190602001808311610a3457829003601f168201915b505050505081526020016003820160009054906101000a900460ff16151515158152602001600482018054610a85906136fe565b80601f0160208091040260200160405190810160405280929190818152602001828054610ab1906136fe565b8015610afe5780601f10610ad357610100808354040283529160200191610afe565b820191906000526020600020905b815481529060010190602001808311610ae157829003601f168201915b5050505050815250509050919050565b600b8181548110610b1e57600080fd5b906000526020600020016000915054906101000a900473ffffffffffffffffffffffffffffffffffffffff1681565b610b68838383604051806020016040528060008152506115b3565b505050565b600a60003373ffffffffffffffffffffffffffffffffffffffff1673ffffffffffffffffffffffffffffffffffffffff16815260200190815260200160002060009054906101000a900460ff16610bf9576040517f08c379a0000000000000000000000000000000000000000000000000000000008152600401610bf0906139cc565b60405180910390fd5b60008511610c3c576040517f08c379a0000000000000000000000000000000000000000000000000000000008152600401610c3390613a38565b60405180910390fd5b60008484905011610c82576040517f08c379a0000000000000000000000000000000000000000000000000000000008152600401610c7990613aa4565b60405180910390fd5b60008282905011610cc8576040517f08c379a0000000000000000000000000000000000000000000000000000000008152600401610cbf90613b10565b60405180910390fd5b6000600c805490509050600c6040518060a0016040528083815260200188815260200187878080601f016020809104026020016040519081016040528093929190818152602001838380828437600081840152601f19601f82011690508083019250505050505050815260200160001515815260200185858080601f016020809104026020016040519081016040528093929190818152602001838380828437600081840152601f19601f82011690508083019250505050505050815250908060018154018082558091505060019003906000526020600020906005020160009091909190915060008201518160000155602082015181600101556040820151816002019081610dd89190613cdc565b5060608201518160030160006101000a81548160ff0219169083151502179055506080820151816004019081610e0e9190613cdc565b505050610e1b3382612149565b610e698184848080601f016020809104026020016040519081016040528093929190818152602001838380828437600081840152601f19601f82011690508083019250505050505050612167565b505050505050565b600080610e7d8361220b565b9050600073ffffffffffffffffffffffffffffffffffffffff168173ffffffffffffffffffffffffffffffffffffffff1603610eee576040517f08c379a0000000000000000000000000000000000000000000000000000000008152600401610ee590613dfa565b60405180910390fd5b80915050919050565b610eff612248565b600c805490508110610f46576040517f08c379a0000000000000000000000000000000000000000000000000000000008152600401610f3d90613931565b60405180910390fd5b6000600c8281548110610f5c57610f5b613951565b5b906000526020600020906005020190508060030160009054906101000a900460ff1615610fbe576040517f08c379a0000000000000000000000000000000000000000000000000000000008152600401610fb590613e66565b60405180910390fd5b80600101543414611004576040517f08c379a0000000000000000000000000000000000000000000000000000000008152600401610ffb90613ed2565b60405180910390fd5b600061100f83610e71565b9050600073ffffffffffffffffffffffffffffffffffffffff168173ffffffffffffffffffffffffffffffffffffffff1603611080576040517f08c379a000000000000000000000000000000000000000000000000000000000815260040161107790613f3e565b60405180910390fd5b3373ffffffffffffffffffffffffffffffffffffffff168173ffffffffffffffffffffffffffffffffffffffff16036110ee576040517f08c379a00000000000000000000000000000000000000000000000000000000081526004016110e590613faa565b60405180910390fd5b60018260030160006101000a81548160ff021916908315150217905550611116813385611e50565b60008173ffffffffffffffffffffffffffffffffffffffff163460405161113c90613ffb565b60006040518083038185875af1925050503d8060008114611179576040519150601f19603f3d011682016040523d82523d6000602084013e61117e565b606091505b50509050806111c2576040517f08c379a00000000000000000000000000000000000000000000000000000000081526004016111b99061405c565b60405180910390fd5b5050506111cd612297565b50565b60008073ffffffffffffffffffffffffffffffffffffffff168273ffffffffffffffffffffffffffffffffffffffff1603611240576040517f08c379a0000000000000000000000000000000000000000000000000000000008152600401611237906140ee565b60405180910390fd5b600360008373ffffffffffffffffffffffffffffffffffffffff1673ffffffffffffffffffffffffffffffffffffffff168152602001908152602001600020549050919050565b61128f6122a1565b611299600061231f565b565b6000600760009054906101000a900473ffffffffffffffffffffffffffffffffffffffff16905090565b6060600180546112d4906136fe565b80601f0160208091040260200160405190810160405280929190818152602001828054611300906136fe565b801561134d5780601f106113225761010080835404028352916020019161134d565b820191906000526020600020905b81548152906001019060200180831161133057829003601f168201915b5050505050905090565b600a60003373ffffffffffffffffffffffffffffffffffffffff1673ffffffffffffffffffffffffffffffffffffffff16815260200190815260200160002060009054906101000a900460ff166113e3576040517f08c379a00000000000000000000000000000000000000000000000000000000081526004016113da906139cc565b60405180910390fd5b600073ffffffffffffffffffffffffffffffffffffffff168173ffffffffffffffffffffffffffffffffffffffff1603611452576040517f08c379a00000000000000000000000000000000000000000000000000000000081526004016114499061415a565b60405180910390fd5b600a60008273ffffffffffffffffffffffffffffffffffffffff1673ffffffffffffffffffffffffffffffffffffffff16815260200190815260200160002060009054906101000a900460ff16156114df576040517f08c379a00000000000000000000000000000000000000000000000000000000081526004016114d6906141c6565b60405180910390fd5b6001600a60008373ffffffffffffffffffffffffffffffffffffffff1673ffffffffffffffffffffffffffffffffffffffff16815260200190815260200160002060006101000a81548160ff021916908315150217905550600b819080600181540180825580915050600190039060005260206000200160009091909190916101000a81548173ffffffffffffffffffffffffffffffffffffffff021916908373ffffffffffffffffffffffffffffffffffffffff16021790555050565b6115af6115a8611cfa565b83836123e5565b5050565b6115c46115be611cfa565b83611dbb565b611603576040517f08c379a00000000000000000000000000000000000000000000000000000000081526004016115fa906138c5565b60405180910390fd5b61160f84848484612551565b50505050565b606061162082611caf565b6000600660008481526020019081526020016000208054611640906136fe565b80601f016020809104026020016040519081016040528092919081815260200182805461166c906136fe565b80156116b95780601f1061168e576101008083540402835291602001916116b9565b820191906000526020600020905b81548152906001019060200180831161169c57829003601f168201915b5050505050905060006116ca6125ad565b905060008151036116df578192505050611722565b6000825111156117145780826040516020016116fc929190614222565b60405160208183030381529060405292505050611722565b61171d846125c4565b925050505b919050565b60606117328261262c565b611771576040517f08c379a000000000000000000000000000000000000000000000000000000000815260040161176890614292565b60405180910390fd5b61177a82611615565b9050919050565b6000600560008473ffffffffffffffffffffffffffffffffffffffff1673ffffffffffffffffffffffffffffffffffffffff16815260200190815260200160002060008373ffffffffffffffffffffffffffffffffffffffff1673ffffffffffffffffffffffffffffffffffffffff16815260200190815260200160002060009054906101000a900460ff16905092915050565b6060600c805480602002602001604051908101604052809291908181526020016000905b828210156119be57838290600052602060002090600502016040518060a00160405290816000820154815260200160018201548152602001600282018054611880906136fe565b80601f01602080910402602001604051908101604052809291908181526020018280546118ac906136fe565b80156118f95780601f106118ce576101008083540402835291602001916118f9565b820191906000526020600020905b8154815290600101906020018083116118dc57829003601f168201915b505050505081526020016003820160009054906101000a900460ff1615151515815260200160048201805461192d906136fe565b80601f0160208091040260200160405190810160405280929190818152602001828054611959906136fe565b80156119a65780601f1061197b576101008083540402835291602001916119a6565b820191906000526020600020905b81548152906001019060200180831161198957829003601f168201915b50505050508152505081526020019060010190611839565b50505050905090565b6119cf6122a1565b600073ffffffffffffffffffffffffffffffffffffffff168173ffffffffffffffffffffffffffffffffffffffff1603611a3e576040517f08c379a0000000000000000000000000000000000000000000000000000000008152600401611a3590614324565b60405180910390fd5b611a478161231f565b50565b600c8181548110611a5a57600080fd5b9060005260206000209060050201600091509050806000015490806001015490806002018054611a89906136fe565b80601f0160208091040260200160405190810160405280929190818152602001828054611ab5906136fe565b8015611b025780601f10611ad757610100808354040283529160200191611b02565b820191906000526020600020905b815481529060010190602001808311611ae557829003601f168201915b5050505050908060030160009054906101000a900460ff1690806004018054611b2a906136fe565b80601f0160208091040260200160405190810160405280929190818152602001828054611b56906136fe565b8015611ba35780601f10611b7857610100808354040283529160200191611ba3565b820191906000526020600020905b815481529060010190602001808311611b8657829003601f168201915b5050505050905085565b600a6020528060005260406000206000915054906101000a900460ff1681565b60007f80ac58cd000000000000000000000000000000000000000000000000000000007bffffffffffffffffffffffffffffffffffffffffffffffffffffffff1916827bffffffffffffffffffffffffffffffffffffffffffffffffffffffff19161480611c9857507f5b5e139f000000000000000000000000000000000000000000000000000000007bffffffffffffffffffffffffffffffffffffffffffffffffffffffff1916827bffffffffffffffffffffffffffffffffffffffffffffffffffffffff1916145b80611ca85750611ca78261266d565b5b9050919050565b611cb88161262c565b611cf7576040517f08c379a0000000000000000000000000000000000000000000000000000000008152600401611cee90613dfa565b60405180910390fd5b50565b600033905090565b816004600083815260200190815260200160002060006101000a81548173ffffffffffffffffffffffffffffffffffffffff021916908373ffffffffffffffffffffffffffffffffffffffff160217905550808273ffffffffffffffffffffffffffffffffffffffff16611d7583610e71565b73ffffffffffffffffffffffffffffffffffffffff167f8c5be1e5ebec7d5bd14f71427d1e84f3dd0314c0f7b2291e5b200ac8c7c3b92560405160405180910390a45050565b600080611dc783610e71565b90508073ffffffffffffffffffffffffffffffffffffffff168473ffffffffffffffffffffffffffffffffffffffff161480611e095750611e088185611781565b5b80611e4757508373ffffffffffffffffffffffffffffffffffffffff16611e2f8461076e565b73ffffffffffffffffffffffffffffffffffffffff16145b91505092915050565b8273ffffffffffffffffffffffffffffffffffffffff16611e7082610e71565b73ffffffffffffffffffffffffffffffffffffffff1614611ec6576040517f08c379a0000000000000000000000000000000000000000000000000000000008152600401611ebd906143b6565b60405180910390fd5b600073ffffffffffffffffffffffffffffffffffffffff168273ffffffffffffffffffffffffffffffffffffffff1603611f35576040517f08c379a0000000000000000000000000000000000000000000000000000000008152600401611f2c90614448565b60405180910390fd5b611f4283838360016126d7565b8273ffffffffffffffffffffffffffffffffffffffff16611f6282610e71565b73ffffffffffffffffffffffffffffffffffffffff1614611fb8576040517f08c379a0000000000000000000000000000000000000000000000000000000008152600401611faf906143b6565b60405180910390fd5b6004600082815260200190815260200160002060006101000a81549073ffffffffffffffffffffffffffffffffffffffff02191690556001600360008573ffffffffffffffffffffffffffffffffffffffff1673ffffffffffffffffffffffffffffffffffffffff168152602001908152602001600020600082825403925050819055506001600360008473ffffffffffffffffffffffffffffffffffffffff1673ffffffffffffffffffffffffffffffffffffffff16815260200190815260200160002060008282540192505081905550816002600083815260200190815260200160002060006101000a81548173ffffffffffffffffffffffffffffffffffffffff021916908373ffffffffffffffffffffffffffffffffffffffff160217905550808273ffffffffffffffffffffffffffffffffffffffff168473ffffffffffffffffffffffffffffffffffffffff167fddf252ad1be2c89b69c2b068fc378daa952ba7f163c4a11628f55a4df523b3ef60405160405180910390a461214483838360016126dd565b505050565b6121638282604051806020016040528060008152506126e3565b5050565b6121708261262c565b6121af576040517f08c379a00000000000000000000000000000000000000000000000000000000081526004016121a6906144da565b60405180910390fd5b806006600084815260200190815260200160002090816121cf9190613cdc565b507ff8e1a15aba9398e019f0b49df1a4fde98ee17ae345cb5f6b5e2c27f5033e8ce7826040516121ff9190613012565b60405180910390a15050565b60006002600083815260200190815260200160002060009054906101000a900473ffffffffffffffffffffffffffffffffffffffff169050919050565b60026008540361228d576040517f08c379a000000000000000000000000000000000000000000000000000000000815260040161228490614546565b60405180910390fd5b6002600881905550565b6001600881905550565b6122a9611cfa565b73ffffffffffffffffffffffffffffffffffffffff166122c761129b565b73ffffffffffffffffffffffffffffffffffffffff161461231d576040517f08c379a0000000000000000000000000000000000000000000000000000000008152600401612314906145b2565b60405180910390fd5b565b6000600760009054906101000a900473ffffffffffffffffffffffffffffffffffffffff16905081600760006101000a81548173ffffffffffffffffffffffffffffffffffffffff021916908373ffffffffffffffffffffffffffffffffffffffff1602179055508173ffffffffffffffffffffffffffffffffffffffff168173ffffffffffffffffffffffffffffffffffffffff167f8be0079c531659141344cd1fd0a4f28419497f9722a3daafe3b4186f6b6457e060405160405180910390a35050565b8173ffffffffffffffffffffffffffffffffffffffff168373ffffffffffffffffffffffffffffffffffffffff1603612453576040517f08c379a000000000000000000000000000000000000000000000000000000000815260040161244a9061461e565b60405180910390fd5b80600560008573ffffffffffffffffffffffffffffffffffffffff1673ffffffffffffffffffffffffffffffffffffffff16815260200190815260200160002060008473ffffffffffffffffffffffffffffffffffffffff1673ffffffffffffffffffffffffffffffffffffffff16815260200190815260200160002060006101000a81548160ff0219169083151502179055508173ffffffffffffffffffffffffffffffffffffffff168373ffffffffffffffffffffffffffffffffffffffff167f17307eab39ab6107e8899845ad3d59bd9653f200f220920489ca2b5937696c31836040516125449190612e0b565b60405180910390a3505050565b61255c848484611e50565b6125688484848461273e565b6125a7576040517f08c379a000000000000000000000000000000000000000000000000000000000815260040161259e906146b0565b60405180910390fd5b50505050565b606060405180602001604052806000815250905090565b60606125cf82611caf565b60006125d96125ad565b905060008151116125f95760405180602001604052806000815250612624565b80612603846128c5565b604051602001612614929190614222565b6040516020818303038152906040525b915050919050565b60008073ffffffffffffffffffffffffffffffffffffffff1661264e8361220b565b73ffffffffffffffffffffffffffffffffffffffff1614159050919050565b60007f01ffc9a7000000000000000000000000000000000000000000000000000000007bffffffffffffffffffffffffffffffffffffffffffffffffffffffff1916827bffffffffffffffffffffffffffffffffffffffffffffffffffffffff1916149050919050565b50505050565b50505050565b6126ed8383612993565b6126fa600084848461273e565b612739576040517f08c379a0000000000000000000000000000000000000000000000000000000008152600401612730906146b0565b60405180910390fd5b505050565b600061275f8473ffffffffffffffffffffffffffffffffffffffff16612bb0565b156128b8578373ffffffffffffffffffffffffffffffffffffffff1663150b7a02612788611cfa565b8786866040518563ffffffff1660e01b81526004016127aa9493929190614725565b6020604051808303816000875af19250505080156127e657506040513d601f19601f820116820180604052508101906127e39190614786565b60015b612868573d8060008114612816576040519150601f19603f3d011682016040523d82523d6000602084013e61281b565b606091505b506000815103612860576040517f08c379a0000000000000000000000000000000000000000000000000000000008152600401612857906146b0565b60405180910390fd5b805181602001fd5b63150b7a0260e01b7bffffffffffffffffffffffffffffffffffffffffffffffffffffffff1916817bffffffffffffffffffffffffffffffffffffffffffffffffffffffff1916149150506128bd565b600190505b949350505050565b6060600060016128d484612bd3565b01905060008167ffffffffffffffff8111156128f3576128f261331f565b5b6040519080825280601f01601f1916602001820160405280156129255781602001600182028036833780820191505090505b509050600082602001820190505b600115612988578080600190039150507f3031323334353637383961626364656600000000000000000000000000000000600a86061a8153600a858161297c5761297b6147b3565b5b04945060008503612933575b819350505050919050565b600073ffffffffffffffffffffffffffffffffffffffff168273ffffffffffffffffffffffffffffffffffffffff1603612a02576040517f08c379a00000000000000000000000000000000000000000000000000000000081526004016129f99061482e565b60405180910390fd5b612a0b8161262c565b15612a4b576040517f08c379a0000000000000000000000000000000000000000000000000000000008152600401612a429061489a565b60405180910390fd5b612a596000838360016126d7565b612a628161262c565b15612aa2576040517f08c379a0000000000000000000000000000000000000000000000000000000008152600401612a999061489a565b60405180910390fd5b6001600360008473ffffffffffffffffffffffffffffffffffffffff1673ffffffffffffffffffffffffffffffffffffffff16815260200190815260200160002060008282540192505081905550816002600083815260200190815260200160002060006101000a81548173ffffffffffffffffffffffffffffffffffffffff021916908373ffffffffffffffffffffffffffffffffffffffff160217905550808273ffffffffffffffffffffffffffffffffffffffff16600073ffffffffffffffffffffffffffffffffffffffff167fddf252ad1be2c89b69c2b068fc378daa952ba7f163c4a11628f55a4df523b3ef60405160405180910390a4612bac6000838360016126dd565b5050565b6000808273ffffffffffffffffffffffffffffffffffffffff163b119050919050565b600080600090507a184f03e93ff9f4daa797ed6e38ed64bf6a1f0100000000000000008310612c31577a184f03e93ff9f4daa797ed6e38ed64bf6a1f0100000000000000008381612c2757612c266147b3565b5b0492506040810190505b6d04ee2d6d415b85acef81000000008310612c6e576d04ee2d6d415b85acef81000000008381612c6457612c636147b3565b5b0492506020810190505b662386f26fc100008310612c9d57662386f26fc100008381612c9357612c926147b3565b5b0492506010810190505b6305f5e1008310612cc6576305f5e1008381612cbc57612cbb6147b3565b5b0492506008810190505b6127108310612ceb576127108381612ce157612ce06147b3565b5b0492506004810190505b60648310612d0e5760648381612d0457612d036147b3565b5b0492506002810190505b600a8310612d1d576001810190505b80915050919050565b6040518060a00160405280600081526020016000815260200160608152602001600015158152602001606081525090565b6000604051905090565b600080fd5b600080fd5b60007fffffffff0000000000000000000000000000000000000000000000000000000082169050919050565b612da081612d6b565b8114612dab57600080fd5b50565b600081359050612dbd81612d97565b92915050565b600060208284031215612dd957612dd8612d61565b5b6000612de784828501612dae565b91505092915050565b60008115159050919050565b612e0581612df0565b82525050565b6000602082019050612e206000830184612dfc565b92915050565b600081519050919050565b600082825260208201905092915050565b60005b83811015612e60578082015181840152602081019050612e45565b60008484015250505050565b6000601f19601f8301169050919050565b6000612e8882612e26565b612e928185612e31565b9350612ea2818560208601612e42565b612eab81612e6c565b840191505092915050565b60006020820190508181036000830152612ed08184612e7d565b905092915050565b6000819050919050565b612eeb81612ed8565b8114612ef657600080fd5b50565b600081359050612f0881612ee2565b92915050565b600060208284031215612f2457612f23612d61565b5b6000612f3284828501612ef9565b91505092915050565b600073ffffffffffffffffffffffffffffffffffffffff82169050919050565b6000612f6682612f3b565b9050919050565b612f7681612f5b565b82525050565b6000602082019050612f916000830184612f6d565b92915050565b612fa081612f5b565b8114612fab57600080fd5b50565b600081359050612fbd81612f97565b92915050565b60008060408385031215612fda57612fd9612d61565b5b6000612fe885828601612fae565b9250506020612ff985828601612ef9565b9150509250929050565b61300c81612ed8565b82525050565b60006020820190506130276000830184613003565b92915050565b60008060006060848603121561304657613045612d61565b5b600061305486828701612fae565b935050602061306586828701612fae565b925050604061307686828701612ef9565b9150509250925092565b61308981612ed8565b82525050565b600082825260208201905092915050565b60006130ab82612e26565b6130b5818561308f565b93506130c5818560208601612e42565b6130ce81612e6c565b840191505092915050565b6130e281612df0565b82525050565b600060a0830160008301516131006000860182613080565b5060208301516131136020860182613080565b506040830151848203604086015261312b82826130a0565b915050606083015161314060608601826130d9565b506080830151848203608086015261315882826130a0565b9150508091505092915050565b6000602082019050818103600083015261317f81846130e8565b905092915050565b600080fd5b600080fd5b600080fd5b60008083601f8401126131ac576131ab613187565b5b8235905067ffffffffffffffff8111156131c9576131c861318c565b5b6020830191508360018202830111156131e5576131e4613191565b5b9250929050565b60008060008060006060868803121561320857613207612d61565b5b600061321688828901612ef9565b955050602086013567ffffffffffffffff81111561323757613236612d66565b5b61324388828901613196565b9450945050604086013567ffffffffffffffff81111561326657613265612d66565b5b61327288828901613196565b92509250509295509295909350565b60006020828403121561329757613296612d61565b5b60006132a584828501612fae565b91505092915050565b6132b781612df0565b81146132c257600080fd5b50565b6000813590506132d4816132ae565b92915050565b600080604083850312156132f1576132f0612d61565b5b60006132ff85828601612fae565b9250506020613310858286016132c5565b9150509250929050565b600080fd5b7f4e487b7100000000000000000000000000000000000000000000000000000000600052604160045260246000fd5b61335782612e6c565b810181811067ffffffffffffffff821117156133765761337561331f565b5b80604052505050565b6000613389612d57565b9050613395828261334e565b919050565b600067ffffffffffffffff8211156133b5576133b461331f565b5b6133be82612e6c565b9050602081019050919050565b82818337600083830152505050565b60006133ed6133e88461339a565b61337f565b9050828152602081018484840111156134095761340861331a565b5b6134148482856133cb565b509392505050565b600082601f83011261343157613430613187565b5b81356134418482602086016133da565b91505092915050565b6000806000806080858703121561346457613463612d61565b5b600061347287828801612fae565b945050602061348387828801612fae565b935050604061349487828801612ef9565b925050606085013567ffffffffffffffff8111156134b5576134b4612d66565b5b6134c18782880161341c565b91505092959194509250565b600080604083850312156134e4576134e3612d61565b5b60006134f285828601612fae565b925050602061350385828601612fae565b9150509250929050565b600081519050919050565b600082825260208201905092915050565b6000819050602082019050919050565b600060a0830160008301516135516000860182613080565b5060208301516135646020860182613080565b506040830151848203604086015261357c82826130a0565b915050606083015161359160608601826130d9565b50608083015184820360808601526135a982826130a0565b9150508091505092915050565b60006135c28383613539565b905092915050565b6000602082019050919050565b60006135e28261350d565b6135ec8185613518565b9350836020820285016135fe85613529565b8060005b8581101561363a578484038952815161361b85826135b6565b9450613626836135ca565b925060208a01995050600181019050613602565b50829750879550505050505092915050565b6000602082019050818103600083015261366681846135d7565b905092915050565b600060a0820190506136836000830188613003565b6136906020830187613003565b81810360408301526136a28186612e7d565b90506136b16060830185612dfc565b81810360808301526136c38184612e7d565b90509695505050505050565b7f4e487b7100000000000000000000000000000000000000000000000000000000600052602260045260246000fd5b6000600282049050600182168061371657607f821691505b602082108103613729576137286136cf565b5b50919050565b7f4552433732313a20617070726f76616c20746f2063757272656e74206f776e6560008201527f7200000000000000000000000000000000000000000000000000000000000000602082015250565b600061378b602183612e31565b91506137968261372f565b604082019050919050565b600060208201905081810360008301526137ba8161377e565b9050919050565b7f4552433732313a20617070726f76652063616c6c6572206973206e6f7420746f60008201527f6b656e206f776e6572206f7220617070726f76656420666f7220616c6c000000602082015250565b600061381d603d83612e31565b9150613828826137c1565b604082019050919050565b6000602082019050818103600083015261384c81613810565b9050919050565b7f4552433732313a2063616c6c6572206973206e6f7420746f6b656e206f776e6560008201527f72206f7220617070726f76656400000000000000000000000000000000000000602082015250565b60006138af602d83612e31565b91506138ba82613853565b604082019050919050565b600060208201905081810360008301526138de816138a2565b9050919050565b7f496e76616c69642070726f706572747920494400000000000000000000000000600082015250565b600061391b601383612e31565b9150613926826138e5565b602082019050919050565b6000602082019050818103600083015261394a8161390e565b9050919050565b7f4e487b7100000000000000000000000000000000000000000000000000000000600052603260045260246000fd5b7f4e6f74206120706c6174666f726d206f776e6572000000000000000000000000600082015250565b60006139b6601483612e31565b91506139c182613980565b602082019050919050565b600060208201905081810360008301526139e5816139a9565b9050919050565b7f5072696365206d7573742062652067726561746572207468616e207a65726f00600082015250565b6000613a22601f83612e31565b9150613a2d826139ec565b602082019050919050565b60006020820190508181036000830152613a5181613a15565b9050919050565b7f4c6f636174696f6e207265717569726564000000000000000000000000000000600082015250565b6000613a8e601183612e31565b9150613a9982613a58565b602082019050919050565b60006020820190508181036000830152613abd81613a81565b9050919050565b7f4d65746164617461205552492072657175697265640000000000000000000000600082015250565b6000613afa601583612e31565b9150613b0582613ac4565b602082019050919050565b60006020820190508181036000830152613b2981613aed565b9050919050565b60008190508160005260206000209050919050565b60006020601f8301049050919050565b600082821b905092915050565b600060088302613b927fffffffffffffffffffffffffffffffffffffffffffffffffffffffffffffffff82613b55565b613b9c8683613b55565b95508019841693508086168417925050509392505050565b6000819050919050565b6000613bd9613bd4613bcf84612ed8565b613bb4565b612ed8565b9050919050565b6000819050919050565b613bf383613bbe565b613c07613bff82613be0565b848454613b62565b825550505050565b600090565b613c1c613c0f565b613c27818484613bea565b505050565b5b81811015613c4b57613c40600082613c14565b600181019050613c2d565b5050565b601f821115613c9057613c6181613b30565b613c6a84613b45565b81016020851015613c79578190505b613c8d613c8585613b45565b830182613c2c565b50505b505050565b600082821c905092915050565b6000613cb360001984600802613c95565b1980831691505092915050565b6000613ccc8383613ca2565b9150826002028217905092915050565b613ce582612e26565b67ffffffffffffffff811115613cfe57613cfd61331f565b5b613d0882546136fe565b613d13828285613c4f565b600060209050601f831160018114613d465760008415613d34578287015190505b613d3e8582613cc0565b865550613da6565b601f198416613d5486613b30565b60005b82811015613d7c57848901518255600182019150602085019450602081019050613d57565b86831015613d995784890151613d95601f891682613ca2565b8355505b6001600288020188555050505b505050505050565b7f4552433732313a20696e76616c696420746f6b656e2049440000000000000000600082015250565b6000613de4601883612e31565b9150613def82613dae565b602082019050919050565b60006020820190508181036000830152613e1381613dd7565b9050919050565b7f50726f706572747920616c726561647920736f6c640000000000000000000000600082015250565b6000613e50601583612e31565b9150613e5b82613e1a565b602082019050919050565b60006020820190508181036000830152613e7f81613e43565b9050919050565b7f496e636f72726563742070726963650000000000000000000000000000000000600082015250565b6000613ebc600f83612e31565b9150613ec782613e86565b602082019050919050565b60006020820190508181036000830152613eeb81613eaf565b9050919050565b7f496e76616c69642063757272656e74206f776e65720000000000000000000000600082015250565b6000613f28601583612e31565b9150613f3382613ef2565b602082019050919050565b60006020820190508181036000830152613f5781613f1b565b9050919050565b7f427579657220616c7265616479206f776e732070726f70657274790000000000600082015250565b6000613f94601b83612e31565b9150613f9f82613f5e565b602082019050919050565b60006020820190508181036000830152613fc381613f87565b9050919050565b600081905092915050565b50565b6000613fe5600083613fca565b9150613ff082613fd5565b600082019050919050565b600061400682613fd8565b9150819050919050565b7f5061796d656e7420746f2073656c6c6572206661696c65640000000000000000600082015250565b6000614046601883612e31565b915061405182614010565b602082019050919050565b6000602082019050818103600083015261407581614039565b9050919050565b7f4552433732313a2061646472657373207a65726f206973206e6f74206120766160008201527f6c6964206f776e65720000000000000000000000000000000000000000000000602082015250565b60006140d8602983612e31565b91506140e38261407c565b604082019050919050565b60006020820190508181036000830152614107816140cb565b9050919050565b7f496e76616c696420616464726573730000000000000000000000000000000000600082015250565b6000614144600f83612e31565b915061414f8261410e565b602082019050919050565b6000602082019050818103600083015261417381614137565b9050919050565b7f416c726561647920616e206f776e657200000000000000000000000000000000600082015250565b60006141b0601083612e31565b91506141bb8261417a565b602082019050919050565b600060208201905081810360008301526141df816141a3565b9050919050565b600081905092915050565b60006141fc82612e26565b61420681856141e6565b9350614216818560208601612e42565b80840191505092915050565b600061422e82856141f1565b915061423a82846141f1565b91508190509392505050565b7f4e6f6e6578697374656e7420746f6b656e000000000000000000000000000000600082015250565b600061427c601183612e31565b915061428782614246565b602082019050919050565b600060208201905081810360008301526142ab8161426f565b9050919050565b7f4f776e61626c653a206e6577206f776e657220697320746865207a65726f206160008201527f6464726573730000000000000000000000000000000000000000000000000000602082015250565b600061430e602683612e31565b9150614319826142b2565b604082019050919050565b6000602082019050818103600083015261433d81614301565b9050919050565b7f4552433732313a207472616e736665722066726f6d20696e636f72726563742060008201527f6f776e6572000000000000000000000000000000000000000000000000000000602082015250565b60006143a0602583612e31565b91506143ab82614344565b604082019050919050565b600060208201905081810360008301526143cf81614393565b9050919050565b7f4552433732313a207472616e7366657220746f20746865207a65726f2061646460008201527f7265737300000000000000000000000000000000000000000000000000000000602082015250565b6000614432602483612e31565b915061443d826143d6565b604082019050919050565b6000602082019050818103600083015261446181614425565b9050919050565b7f45524337323155524953746f726167653a2055524920736574206f66206e6f6e60008201527f6578697374656e7420746f6b656e000000000000000000000000000000000000602082015250565b60006144c4602e83612e31565b91506144cf82614468565b604082019050919050565b600060208201905081810360008301526144f3816144b7565b9050919050565b7f5265656e7472616e637947756172643a207265656e7472616e742063616c6c00600082015250565b6000614530601f83612e31565b915061453b826144fa565b602082019050919050565b6000602082019050818103600083015261455f81614523565b9050919050565b7f4f776e61626c653a2063616c6c6572206973206e6f7420746865206f776e6572600082015250565b600061459c602083612e31565b91506145a782614566565b602082019050919050565b600060208201905081810360008301526145cb8161458f565b9050919050565b7f4552433732313a20617070726f766520746f2063616c6c657200000000000000600082015250565b6000614608601983612e31565b9150614613826145d2565b602082019050919050565b60006020820190508181036000830152614637816145fb565b9050919050565b7f4552433732313a207472616e7366657220746f206e6f6e20455243373231526560008201527f63656976657220696d706c656d656e7465720000000000000000000000000000602082015250565b600061469a603283612e31565b91506146a58261463e565b604082019050919050565b600060208201905081810360008301526146c98161468d565b9050919050565b600081519050919050565b600082825260208201905092915050565b60006146f7826146d0565b61470181856146db565b9350614711818560208601612e42565b61471a81612e6c565b840191505092915050565b600060808201905061473a6000830187612f6d565b6147476020830186612f6d565b6147546040830185613003565b818103606083015261476681846146ec565b905095945050505050565b60008151905061478081612d97565b92915050565b60006020828403121561479c5761479b612d61565b5b60006147aa84828501614771565b91505092915050565b7f4e487b7100000000000000000000000000000000000000000000000000000000600052601260045260246000fd5b7f4552433732313a206d696e7420746f20746865207a65726f2061646472657373600082015250565b6000614818602083612e31565b9150614823826147e2565b602082019050919050565b600060208201905081810360008301526148478161480b565b9050919050565b7f4552433732313a20746f6b656e20616c7265616479206d696e74656400000000600082015250565b6000614884601c83612e31565b915061488f8261484e565b602082019050919050565b600060208201905081810360008301526148b381614877565b905091905056fea26469706673582212200b34b241c2c10514a74090dbfdf646c81edb8716457875840633f0bb1add1d4364736f6c634300081c0033",
  "linkReferences": {},
  "deployedLinkReferences": {}
}